{
  "contractName": "TokenVines",
  "abi": [
    {
      "inputs": [
        {
          "internalType": "uint256",
          "name": "_count",
          "type": "uint256"
        },
        {
          "internalType": "uint256",
          "name": "_price",
          "type": "uint256"
        }
      ],
      "stateMutability": "nonpayable",
      "type": "constructor"
    },
    {
      "anonymous": false,
      "inputs": [
        {
          "indexed": true,
          "internalType": "address",
          "name": "previousOwner",
          "type": "address"
        },
        {
          "indexed": true,
          "internalType": "address",
          "name": "newOwner",
          "type": "address"
        }
      ],
      "name": "OwnershipTransferred",
      "type": "event"
    },
    {
      "inputs": [],
      "name": "owner",
      "outputs": [
        {
          "internalType": "address",
          "name": "",
          "type": "address"
        }
      ],
      "stateMutability": "view",
      "type": "function",
      "constant": true
    },
    {
      "inputs": [],
      "name": "renounceOwnership",
      "outputs": [],
      "stateMutability": "nonpayable",
      "type": "function"
    },
    {
      "inputs": [
        {
          "internalType": "address",
          "name": "newOwner",
          "type": "address"
        }
      ],
      "name": "transferOwnership",
      "outputs": [],
      "stateMutability": "nonpayable",
      "type": "function"
    },
    {
      "inputs": [],
      "name": "vineCount",
      "outputs": [
        {
          "internalType": "uint256",
          "name": "",
          "type": "uint256"
        }
      ],
      "stateMutability": "view",
      "type": "function",
      "constant": true
    },
    {
      "inputs": [
        {
          "internalType": "uint256",
          "name": "_price",
          "type": "uint256"
        }
      ],
      "name": "addVine",
      "outputs": [],
      "stateMutability": "nonpayable",
      "type": "function"
    },
    {
      "inputs": [
        {
          "internalType": "uint256",
          "name": "_vineId",
          "type": "uint256"
        }
      ],
      "name": "buyVine",
      "outputs": [],
      "stateMutability": "nonpayable",
      "type": "function"
    },
    {
      "inputs": [
        {
          "internalType": "uint256",
          "name": "_vineId",
          "type": "uint256"
        }
      ],
      "name": "fetchVine",
      "outputs": [
        {
          "internalType": "uint256",
          "name": "vineId",
          "type": "uint256"
        },
        {
          "internalType": "uint256",
          "name": "price",
          "type": "uint256"
        },
        {
          "internalType": "string",
          "name": "stateIs",
          "type": "string"
        },
        {
          "internalType": "address",
          "name": "seller",
          "type": "address"
        },
        {
          "internalType": "address",
          "name": "buyer",
          "type": "address"
        }
      ],
      "stateMutability": "view",
      "type": "function",
      "constant": true
    }
  ],
  "bytecode": "0x608060405234801561001057600080fd5b50604051610e15380380610e158339818101604052604081101561003357600080fd5b810190808051906020019092919080519060200190929190505050600061005e61026f60201b60201c565b9050806000806101000a81548173ffffffffffffffffffffffffffffffffffffffff021916908373ffffffffffffffffffffffffffffffffffffffff1602179055508073ffffffffffffffffffffffffffffffffffffffff16600073ffffffffffffffffffffffffffffffffffffffff167f8be0079c531659141344cd1fd0a4f28419497f9722a3daafe3b4186f6b6457e060405160405180910390a35081600181905550600033905060008090505b83811015610266576040518060a001604052808281526020018481526020016000600181111561013a57fe5b81526020018373ffffffffffffffffffffffffffffffffffffffff168152602001600073ffffffffffffffffffffffffffffffffffffffff16815250600260006001548152602001908152602001600020600082015181600001556020820151816001015560408201518160020160006101000a81548160ff021916908360018111156101c357fe5b021790555060608201518160020160016101000a81548173ffffffffffffffffffffffffffffffffffffffff021916908373ffffffffffffffffffffffffffffffffffffffff16021790555060808201518160030160006101000a81548173ffffffffffffffffffffffffffffffffffffffff021916908373ffffffffffffffffffffffffffffffffffffffff160217905550905050808060010191505061010e565b50505050610277565b600033905090565b610b8f806102866000396000f3fe608060405234801561001057600080fd5b506004361061007d5760003560e01c80638da5cb5b1161005b5780638da5cb5b146101d55780638f66557b1461021f57806390181dc71461023d578063f2fde38b1461026b5761007d565b80633b0ef6b6146100825780634a426dd51461019d578063715018a6146101cb575b600080fd5b6100ae6004803603602081101561009857600080fd5b81019080803590602001909291905050506102af565b60405180868152602001858152602001806020018473ffffffffffffffffffffffffffffffffffffffff1673ffffffffffffffffffffffffffffffffffffffff1681526020018373ffffffffffffffffffffffffffffffffffffffff1673ffffffffffffffffffffffffffffffffffffffff168152602001828103825285818151815260200191508051906020019080838360005b8381101561015e578082015181840152602081019050610143565b50505050905090810190601f16801561018b5780820380516001836020036101000a031916815260200191505b50965050505050505060405180910390f35b6101c9600480360360208110156101b357600080fd5b810190808035906020019092919050505061041c565b005b6101d3610638565b005b6101dd6107c0565b604051808273ffffffffffffffffffffffffffffffffffffffff1673ffffffffffffffffffffffffffffffffffffffff16815260200191505060405180910390f35b6102276107e9565b6040518082815260200191505060405180910390f35b6102696004803603602081101561025357600080fd5b81019080803590602001909291905050506107ef565b005b6102ad6004803603602081101561028157600080fd5b81019080803573ffffffffffffffffffffffffffffffffffffffff16906020019092919050505061091e565b005b6000806060600080600060026000888152602001908152602001600020600001549550600260008881526020019081526020016000206001015494506002600088815260200190815260200160002060020160009054906101000a900460ff16600181111561031a57fe5b9050600081141561035e576040518060400160405280600981526020017f486172766573746564000000000000000000000000000000000000000000000081525093505b60018114156103a0576040518060400160405280600b81526020017f556e68617276657374656400000000000000000000000000000000000000000081525093505b6002600088815260200190815260200160002060020160019054906101000a900473ffffffffffffffffffffffffffffffffffffffff1692506002600088815260200190815260200160002060030160009054906101000a900473ffffffffffffffffffffffffffffffffffffffff1691505091939590929450565b610424610b2b565b73ffffffffffffffffffffffffffffffffffffffff166000809054906101000a900473ffffffffffffffffffffffffffffffffffffffff1673ffffffffffffffffffffffffffffffffffffffff16146104e5576040517f08c379a00000000000000000000000000000000000000000000000000000000081526004018080602001828103825260208152602001807f4f776e61626c653a2063616c6c6572206973206e6f7420746865206f776e657281525060200191505060405180910390fd5b60018054016001819055506040518060a0016040528060015481526020018281526020016000600181111561051657fe5b81526020013373ffffffffffffffffffffffffffffffffffffffff168152602001600073ffffffffffffffffffffffffffffffffffffffff16815250600260006001548152602001908152602001600020600082015181600001556020820151816001015560408201518160020160006101000a81548160ff0219169083600181111561059f57fe5b021790555060608201518160020160016101000a81548173ffffffffffffffffffffffffffffffffffffffff021916908373ffffffffffffffffffffffffffffffffffffffff16021790555060808201518160030160006101000a81548173ffffffffffffffffffffffffffffffffffffffff021916908373ffffffffffffffffffffffffffffffffffffffff16021790555090505050565b610640610b2b565b73ffffffffffffffffffffffffffffffffffffffff166000809054906101000a900473ffffffffffffffffffffffffffffffffffffffff1673ffffffffffffffffffffffffffffffffffffffff1614610701576040517f08c379a00000000000000000000000000000000000000000000000000000000081526004018080602001828103825260208152602001807f4f776e61626c653a2063616c6c6572206973206e6f7420746865206f776e657281525060200191505060405180910390fd5b600073ffffffffffffffffffffffffffffffffffffffff166000809054906101000a900473ffffffffffffffffffffffffffffffffffffffff1673ffffffffffffffffffffffffffffffffffffffff167f8be0079c531659141344cd1fd0a4f28419497f9722a3daafe3b4186f6b6457e060405160405180910390a360008060006101000a81548173ffffffffffffffffffffffffffffffffffffffff021916908373ffffffffffffffffffffffffffffffffffffffff160217905550565b60008060009054906101000a900473ffffffffffffffffffffffffffffffffffffffff16905090565b60015481565b6000339050600060026000848152602001908152602001600020600101549050816002600085815260200190815260200160002060030160006101000a81548173ffffffffffffffffffffffffffffffffffffffff021916908373ffffffffffffffffffffffffffffffffffffffff16021790555060016002600085815260200190815260200160002060020160006101000a81548160ff0219169083600181111561089757fe5b02179055506002600084815260200190815260200160002060020160019054906101000a900473ffffffffffffffffffffffffffffffffffffffff1673ffffffffffffffffffffffffffffffffffffffff166108fc829081150290604051600060405180830381858888f19350505050158015610918573d6000803e3d6000fd5b50505050565b610926610b2b565b73ffffffffffffffffffffffffffffffffffffffff166000809054906101000a900473ffffffffffffffffffffffffffffffffffffffff1673ffffffffffffffffffffffffffffffffffffffff16146109e7576040517f08c379a00000000000000000000000000000000000000000000000000000000081526004018080602001828103825260208152602001807f4f776e61626c653a2063616c6c6572206973206e6f7420746865206f776e657281525060200191505060405180910390fd5b600073ffffffffffffffffffffffffffffffffffffffff168173ffffffffffffffffffffffffffffffffffffffff161415610a6d576040517f08c379a0000000000000000000000000000000000000000000000000000000008152600401808060200182810382526026815260200180610b346026913960400191505060405180910390fd5b8073ffffffffffffffffffffffffffffffffffffffff166000809054906101000a900473ffffffffffffffffffffffffffffffffffffffff1673ffffffffffffffffffffffffffffffffffffffff167f8be0079c531659141344cd1fd0a4f28419497f9722a3daafe3b4186f6b6457e060405160405180910390a3806000806101000a81548173ffffffffffffffffffffffffffffffffffffffff021916908373ffffffffffffffffffffffffffffffffffffffff16021790555050565b60003390509056fe4f776e61626c653a206e6577206f776e657220697320746865207a65726f2061646472657373a2646970667358221220b0f63123b469375b39ac61918b9d185ab71c308293256b40d1bfee53193ead2f64736f6c63430006010033",
  "source": "// SPDX-License-Identifier: MIT\n\npragma solidity >=0.5.4;\n\nimport \"@openzeppelin/contracts/access/Ownable.sol\";\n\n// Define a contract 'Lemonade Stand'\ncontract TokenVines is Ownable {\n    // Variable: SKU count\n    uint256 public vineCount;\n\n    // Event: 'State' with value 'ForSale'\n    enum State {\n        Harvested,\n        Unharvested\n    }\n\n    struct Vine {\n        uint256 vineId;\n        uint256 price;\n        State state;\n        address payable seller;\n        address buyer;\n    }\n\n    // Define a public mapping 'items' that maps the SKU (a number) to an Item.\n    mapping(uint256 => Vine) vines;\n\n    constructor(uint256 _count, uint256 _price) public {\n        vineCount = _count;\n        address payable seller = msg.sender;\n        for (uint256 i = 0; i < _count; i++) {\n            vines[vineCount] = Vine({\n                vineId: i,\n                price: _price,\n                state: State.Harvested,\n                seller: seller,\n                buyer: address(0)\n            });\n        }\n    }\n\n    function addVine(uint256 _price) public onlyOwner {\n        // Increment sku\n        vineCount = vineCount + 1;\n\n        // Add the new item into inventory and mark it for sale\n        vines[vineCount] = Vine({\n            vineId: vineCount,\n            price: _price,\n            state: State.Harvested,\n            seller: msg.sender,\n            buyer: address(0)\n        });\n    }\n\n    function buyVine(uint256 _vineId) public {\n        address buyer = msg.sender;\n        uint256 price = vines[_vineId].price;\n\n        // Update Buyer\n        vines[_vineId].buyer = buyer;\n\n        // Update State\n        vines[_vineId].state = State.Unharvested;\n\n        // Transfer money to seller\n        vines[_vineId].seller.transfer(price);\n    }\n\n    function fetchVine(uint256 _vineId)\n        public\n        view\n        returns (\n            uint256 vineId,\n            uint256 price,\n            string memory stateIs,\n            address seller,\n            address buyer\n        )\n    {\n        uint256 state;\n        vineId = vines[_vineId].vineId;\n        price = vines[_vineId].price;\n        state = uint256(vines[_vineId].state);\n\n        if (state == 0) {\n            stateIs = \"Harvested\";\n        }\n\n        if (state == 1) {\n            stateIs = \"Unharvested\";\n        }\n\n        seller = vines[_vineId].seller;\n        buyer = vines[_vineId].buyer;\n    }\n}\n",
  "sourcePath": "/Users/josejlovaglio/Development/Consensys/Consensys-Final-Project/contracts/TokenVines.sol",
  "compiler": {
    "name": "solc",
    "version": "0.6.1+commit.e6f7d5a4.Emscripten.clang"
  },
  "schemaVersion": "3.4.3",
  "updatedAt": "2021-11-21T21:45:06.347Z",
  "networkType": "ethereum",
  "devdoc": {
    "methods": {
      "owner()": {
        "details": "Returns the address of the current owner."
      },
      "renounceOwnership()": {
        "details": "Leaves the contract without owner. It will not be possible to call `onlyOwner` functions anymore. Can only be called by the current owner.     * NOTE: Renouncing ownership will leave the contract without an owner, thereby removing any functionality that is only available to the owner."
      },
      "transferOwnership(address)": {
        "details": "Transfers ownership of the contract to a new account (`newOwner`). Can only be called by the current owner."
      }
    }
  },
  "userdoc": {
    "methods": {}
  }
}