{
  "contractName": "TokenVines",
  "abi": [
    {
      "inputs": [
        {
          "internalType": "uint256",
          "name": "_num",
          "type": "uint256"
        }
      ],
      "payable": false,
      "stateMutability": "nonpayable",
      "type": "constructor"
    },
    {
      "constant": true,
      "inputs": [],
      "name": "storedData",
      "outputs": [
        {
          "internalType": "uint256",
          "name": "",
          "type": "uint256"
        }
      ],
      "payable": false,
      "stateMutability": "view",
      "type": "function"
    },
    {
      "constant": true,
      "inputs": [],
      "name": "getStoredData",
      "outputs": [
        {
          "internalType": "uint256",
          "name": "",
          "type": "uint256"
        }
      ],
      "payable": false,
      "stateMutability": "view",
      "type": "function"
    },
    {
      "constant": false,
      "inputs": [
        {
          "internalType": "uint256",
          "name": "x",
          "type": "uint256"
        }
      ],
      "name": "setStoredData",
      "outputs": [],
      "payable": false,
      "stateMutability": "nonpayable",
      "type": "function"
    }
  ],
  "bytecode": "0x608060405233600160006101000a81548173ffffffffffffffffffffffffffffffffffffffff021916908373ffffffffffffffffffffffffffffffffffffffff16021790555034801561005157600080fd5b5060405161018d38038061018d8339818101604052602081101561007457600080fd5b8101908080519060200190929190505050806000819055505060f28061009b6000396000f3fe6080604052348015600f57600080fd5b5060043610603c5760003560e01c80632a1afcd91460415780632f9530f714605d578063b69ca9a1146088575b600080fd5b604760a4565b6040518082815260200191505060405180910390f35b608660048036036020811015607157600080fd5b810190808035906020019092919050505060aa565b005b608e60b4565b6040518082815260200191505060405180910390f35b60005481565b8060008190555050565b6000805490509056fea265627a7a72315820d15f824a5eff692a04f325ac15f25463a7b53ee8bf216bdd388c18df3ec66ed564736f6c63430005100032",
  "source": "// SPDX-License-Identifier: MIT\npragma solidity >=0.4.22 <0.9.0;\n\ncontract TokenVines {\n\n  uint256 public storedData;\n  address owner = msg.sender;\n\n  constructor(uint256 _num) public {\n    storedData = _num;\n  }\n\n  function getStoredData() public view returns (uint256) {\n    return storedData;\n  }\n\n  function setStoredData(uint256 x) public {\n    storedData = x;\n  }\n\n\n}\n\n// TODO: write the Solidity architecture (function names and their inputs and outputs )\n// TODO: merge with dev branch\n// TODO: upload to github",
  "sourcePath": "/Users/josejlovaglio/Development/Consensys/Consensys-Final-Project/contracts/TokenVines.sol",
  "compiler": {
    "name": "solc",
    "version": "0.5.16+commit.9c3226ce.Emscripten.clang"
  },
  "schemaVersion": "3.4.3",
  "updatedAt": "2021-11-01T17:48:51.665Z",
  "networkType": "ethereum",
  "devdoc": {
    "methods": {}
  },
  "userdoc": {
    "methods": {}
  }
}