{
  "contractName": "TokenVines",
  "abi": [
    {
      "inputs": [
        {
          "internalType": "uint256",
          "name": "_count",
          "type": "uint256"
        }
      ],
      "payable": false,
      "stateMutability": "nonpayable",
      "type": "constructor"
    },
    {
      "constant": true,
      "inputs": [],
      "name": "vineCount",
      "outputs": [
        {
          "internalType": "uint256",
          "name": "",
          "type": "uint256"
        }
      ],
      "payable": false,
      "stateMutability": "view",
      "type": "function"
    },
    {
      "constant": false,
      "inputs": [
        {
          "internalType": "uint256",
          "name": "_price",
          "type": "uint256"
        }
      ],
      "name": "addVine",
      "outputs": [],
      "payable": false,
      "stateMutability": "nonpayable",
      "type": "function"
    },
    {
      "constant": false,
      "inputs": [
        {
          "internalType": "uint256",
          "name": "_vineId",
          "type": "uint256"
        }
      ],
      "name": "buyVine",
      "outputs": [],
      "payable": false,
      "stateMutability": "nonpayable",
      "type": "function"
    },
    {
      "constant": true,
      "inputs": [
        {
          "internalType": "uint256",
          "name": "_vineId",
          "type": "uint256"
        }
      ],
      "name": "fetchVine",
      "outputs": [
        {
          "internalType": "uint256",
          "name": "vineId",
          "type": "uint256"
        },
        {
          "internalType": "uint256",
          "name": "price",
          "type": "uint256"
        },
        {
          "internalType": "string",
          "name": "stateIs",
          "type": "string"
        },
        {
          "internalType": "address",
          "name": "seller",
          "type": "address"
        },
        {
          "internalType": "address",
          "name": "buyer",
          "type": "address"
        }
      ],
      "payable": false,
      "stateMutability": "view",
      "type": "function"
    }
  ],
  "bytecode": "0x608060405234801561001057600080fd5b506040516106ab3803806106ab8339818101604052602081101561003357600080fd5b8101908080519060200190929190505050336000806101000a81548173ffffffffffffffffffffffffffffffffffffffff021916908373ffffffffffffffffffffffffffffffffffffffff16021790555080600181905550506106108061009b6000396000f3fe608060405234801561001057600080fd5b506004361061004c5760003560e01c80633b0ef6b6146100515780634a426dd51461016c5780638f66557b1461019a57806390181dc7146101b8575b600080fd5b61007d6004803603602081101561006757600080fd5b81019080803590602001909291905050506101e6565b60405180868152602001858152602001806020018473ffffffffffffffffffffffffffffffffffffffff1673ffffffffffffffffffffffffffffffffffffffff1681526020018373ffffffffffffffffffffffffffffffffffffffff1673ffffffffffffffffffffffffffffffffffffffff168152602001828103825285818151815260200191508051906020019080838360005b8381101561012d578082015181840152602081019050610112565b50505050905090810190601f16801561015a5780820380516001836020036101000a031916815260200191505b50965050505050505060405180910390f35b6101986004803603602081101561018257600080fd5b8101908080359060200190929190505050610353565b005b6101a26104a6565b6040518082815260200191505060405180910390f35b6101e4600480360360208110156101ce57600080fd5b81019080803590602001909291905050506104ac565b005b6000806060600080600060026000888152602001908152602001600020600001549550600260008881526020019081526020016000206001015494506002600088815260200190815260200160002060020160009054906101000a900460ff16600181111561025157fe5b90506000811415610295576040518060400160405280600981526020017f486172766573746564000000000000000000000000000000000000000000000081525093505b60018114156102d7576040518060400160405280600b81526020017f556e68617276657374656400000000000000000000000000000000000000000081525093505b6002600088815260200190815260200160002060020160019054906101000a900473ffffffffffffffffffffffffffffffffffffffff1692506002600088815260200190815260200160002060030160009054906101000a900473ffffffffffffffffffffffffffffffffffffffff1691505091939590929450565b60018054016001819055506040518060a0016040528060015481526020018281526020016000600181111561038457fe5b81526020013373ffffffffffffffffffffffffffffffffffffffff168152602001600073ffffffffffffffffffffffffffffffffffffffff16815250600260006001548152602001908152602001600020600082015181600001556020820151816001015560408201518160020160006101000a81548160ff0219169083600181111561040d57fe5b021790555060608201518160020160016101000a81548173ffffffffffffffffffffffffffffffffffffffff021916908373ffffffffffffffffffffffffffffffffffffffff16021790555060808201518160030160006101000a81548173ffffffffffffffffffffffffffffffffffffffff021916908373ffffffffffffffffffffffffffffffffffffffff16021790555090505050565b60015481565b6000339050600060026000848152602001908152602001600020600101549050816002600085815260200190815260200160002060030160006101000a81548173ffffffffffffffffffffffffffffffffffffffff021916908373ffffffffffffffffffffffffffffffffffffffff16021790555060016002600085815260200190815260200160002060020160006101000a81548160ff0219169083600181111561055457fe5b02179055506002600084815260200190815260200160002060020160019054906101000a900473ffffffffffffffffffffffffffffffffffffffff1673ffffffffffffffffffffffffffffffffffffffff166108fc829081150290604051600060405180830381858888f193505050501580156105d5573d6000803e3d6000fd5b5050505056fea265627a7a7231582006aff778084b9a65ab5e02245137d6005056834e527d77a7ccbf8c73f93de0d164736f6c63430005100032",
  "source": "// SPDX-License-Identifier: MIT\n\npragma solidity >=0.5.16;\n\n// Define a contract 'Lemonade Stand'\ncontract TokenVines {\n    // Variable: Owner\n    address owner;\n\n    // Variable: SKU count\n    uint256 public vineCount;\n\n    // Event: 'State' with value 'ForSale'\n    enum State {\n        Harvested,\n        Unharvested\n    }\n\n    struct Vine {\n        uint256 vineId;\n        uint256 price;\n        State state;\n        address payable seller;\n        address buyer;\n    }\n\n    // Define a public mapping 'items' that maps the SKU (a number) to an Item.\n    mapping(uint256 => Vine) vines;\n\n    constructor(uint256 _count) public {\n        owner = msg.sender;\n        vineCount = _count;\n    }\n\n    function addVine(uint256 _price) public {\n        // Increment sku\n        vineCount = vineCount + 1;\n\n        // Add the new item into inventory and mark it for sale\n        vines[vineCount] = Vine({\n            vineId: vineCount,\n            price: _price,\n            state: State.Harvested,\n            seller: msg.sender,\n            buyer: address(0)\n        });\n    }\n\n    function buyVine(uint256 _vineId) public {\n        address buyer = msg.sender;\n        uint256 price = vines[_vineId].price;\n\n        // Update Buyer\n        vines[_vineId].buyer = buyer;\n\n        // Update State\n        vines[_vineId].state = State.Unharvested;\n\n        // Transfer money to seller\n        vines[_vineId].seller.transfer(price);\n    }\n\n    function fetchVine(uint256 _vineId)\n        public\n        view\n        returns (\n            uint256 vineId,\n            uint256 price,\n            string memory stateIs,\n            address seller,\n            address buyer\n        )\n    {\n        uint256 state;\n        vineId = vines[_vineId].vineId;\n        price = vines[_vineId].price;\n        state = uint256(vines[_vineId].state);\n\n        if (state == 0) {\n            stateIs = \"Harvested\";\n        }\n\n        if (state == 1) {\n            stateIs = \"Unharvested\";\n        }\n\n        seller = vines[_vineId].seller;\n        buyer = vines[_vineId].buyer;\n    }\n}\n",
  "sourcePath": "/Users/josejlovaglio/Development/Consensys/Consensys-Final-Project/contracts/TokenVines.sol",
  "compiler": {
    "name": "solc",
    "version": "0.5.16+commit.9c3226ce.Emscripten.clang"
  },
  "schemaVersion": "3.4.3",
  "updatedAt": "2021-11-21T17:51:50.038Z",
  "networkType": "ethereum",
  "devdoc": {
    "methods": {}
  },
  "userdoc": {
    "methods": {}
  }
}