{
  "contractName": "TokenVines",
  "abi": [
    {
      "inputs": [],
      "stateMutability": "nonpayable",
      "type": "constructor"
    },
    {
      "anonymous": false,
      "inputs": [
        {
          "indexed": true,
          "internalType": "address",
          "name": "sender",
          "type": "address"
        },
        {
          "indexed": false,
          "internalType": "string",
          "name": "message",
          "type": "string"
        }
      ],
      "name": "Log",
      "type": "event"
    },
    {
      "anonymous": false,
      "inputs": [
        {
          "indexed": true,
          "internalType": "address",
          "name": "previousOwner",
          "type": "address"
        },
        {
          "indexed": true,
          "internalType": "address",
          "name": "newOwner",
          "type": "address"
        }
      ],
      "name": "OwnershipTransferred",
      "type": "event"
    },
    {
      "inputs": [],
      "name": "owner",
      "outputs": [
        {
          "internalType": "address",
          "name": "",
          "type": "address"
        }
      ],
      "stateMutability": "view",
      "type": "function",
      "constant": true
    },
    {
      "inputs": [],
      "name": "renounceOwnership",
      "outputs": [],
      "stateMutability": "nonpayable",
      "type": "function"
    },
    {
      "inputs": [
        {
          "internalType": "address",
          "name": "newOwner",
          "type": "address"
        }
      ],
      "name": "transferOwnership",
      "outputs": [],
      "stateMutability": "nonpayable",
      "type": "function"
    },
    {
      "inputs": [
        {
          "internalType": "uint256",
          "name": "",
          "type": "uint256"
        }
      ],
      "name": "vineIds",
      "outputs": [
        {
          "internalType": "uint256",
          "name": "",
          "type": "uint256"
        }
      ],
      "stateMutability": "view",
      "type": "function",
      "constant": true
    },
    {
      "inputs": [],
      "name": "getVineCount",
      "outputs": [
        {
          "internalType": "uint256",
          "name": "",
          "type": "uint256"
        }
      ],
      "stateMutability": "view",
      "type": "function",
      "constant": true
    },
    {
      "inputs": [],
      "name": "getVineIds",
      "outputs": [
        {
          "internalType": "uint256[]",
          "name": "",
          "type": "uint256[]"
        }
      ],
      "stateMutability": "view",
      "type": "function",
      "constant": true
    },
    {
      "inputs": [
        {
          "internalType": "uint256",
          "name": "_vineId",
          "type": "uint256"
        }
      ],
      "name": "putVineForSale",
      "outputs": [],
      "stateMutability": "nonpayable",
      "type": "function"
    },
    {
      "inputs": [
        {
          "internalType": "uint256",
          "name": "_vineId",
          "type": "uint256"
        }
      ],
      "name": "buyVine",
      "outputs": [],
      "stateMutability": "payable",
      "type": "function",
      "payable": true
    },
    {
      "inputs": [
        {
          "internalType": "uint256",
          "name": "_vineId",
          "type": "uint256"
        }
      ],
      "name": "fetchVine",
      "outputs": [
        {
          "internalType": "uint256",
          "name": "vineId",
          "type": "uint256"
        },
        {
          "internalType": "uint256",
          "name": "price",
          "type": "uint256"
        },
        {
          "internalType": "string",
          "name": "saleIs",
          "type": "string"
        },
        {
          "internalType": "string",
          "name": "stateIs",
          "type": "string"
        },
        {
          "internalType": "address",
          "name": "vineOwner",
          "type": "address"
        }
      ],
      "stateMutability": "view",
      "type": "function",
      "constant": true
    }
  ],
  "bytecode": "0x608060405234801561001057600080fd5b5060006100216100d260201b60201c565b9050806000806101000a81548173ffffffffffffffffffffffffffffffffffffffff021916908373ffffffffffffffffffffffffffffffffffffffff1602179055508073ffffffffffffffffffffffffffffffffffffffff16600073ffffffffffffffffffffffffffffffffffffffff167f8be0079c531659141344cd1fd0a4f28419497f9722a3daafe3b4186f6b6457e060405160405180910390a3506100cd6100da60201b60201c565b610356565b600033905090565b6100e86100d260201b60201c565b73ffffffffffffffffffffffffffffffffffffffff166000809054906101000a900473ffffffffffffffffffffffffffffffffffffffff1673ffffffffffffffffffffffffffffffffffffffff16146101a9576040517f08c379a00000000000000000000000000000000000000000000000000000000081526004018080602001828103825260208152602001807f4f776e61626c653a2063616c6c6572206973206e6f7420746865206f776e657281525060200191505060405180910390fd5b600060189050600067016345785d8a000090506000600190505b600183018110156103285760018190806001815401808255809150506001900390600052602060002001600090919091909150556040518060a0016040528082815260200183815260200160018081111561021a57fe5b81526020016000600181111561022c57fe5b815260200161023f61032d60201b60201c565b73ffffffffffffffffffffffffffffffffffffffff1681525060026000838152602001908152602001600020600082015181600001556020820151816001015560408201518160020160006101000a81548160ff021916908360018111156102a357fe5b021790555060608201518160020160016101000a81548160ff021916908360018111156102cc57fe5b021790555060808201518160020160026101000a81548173ffffffffffffffffffffffffffffffffffffffff021916908373ffffffffffffffffffffffffffffffffffffffff16021790555090505080806001019150506101c3565b505050565b60008060009054906101000a900473ffffffffffffffffffffffffffffffffffffffff16905090565b610e6c80620003666000396000f3fe6080604052600436106100865760003560e01c8063715018a611610059578063715018a6146102e25780638da5cb5b146102f957806390181dc714610350578063f2fde38b1461037e578063ff685b7e146103cf57610086565b80633b0ef6b61461008b5780634b52d53e146101ec5780634b59dc27146102585780634de0e0ae14610293575b600080fd5b34801561009757600080fd5b506100c4600480360360208110156100ae57600080fd5b81019080803590602001909291905050506103fa565b6040518086815260200185815260200180602001806020018473ffffffffffffffffffffffffffffffffffffffff1673ffffffffffffffffffffffffffffffffffffffff168152602001838103835286818151815260200191508051906020019080838360005b8381101561014657808201518184015260208101905061012b565b50505050905090810190601f1680156101735780820380516001836020036101000a031916815260200191505b50838103825285818151815260200191508051906020019080838360005b838110156101ac578082015181840152602081019050610191565b50505050905090810190601f1680156101d95780820380516001836020036101000a031916815260200191505b5097505050505050505060405180910390f35b3480156101f857600080fd5b50610201610645565b6040518080602001828103825283818151815260200191508051906020019060200280838360005b83811015610244578082015181840152602081019050610229565b505050509050019250505060405180910390f35b34801561026457600080fd5b506102916004803603602081101561027b57600080fd5b810190808035906020019092919050505061069d565b005b34801561029f57600080fd5b506102cc600480360360208110156102b657600080fd5b810190808035906020019092919050505061073e565b6040518082815260200191505060405180910390f35b3480156102ee57600080fd5b506102f761075f565b005b34801561030557600080fd5b5061030e6108e7565b604051808273ffffffffffffffffffffffffffffffffffffffff1673ffffffffffffffffffffffffffffffffffffffff16815260200191505060405180910390f35b61037c6004803603602081101561036657600080fd5b8101908080359060200190929190505050610910565b005b34801561038a57600080fd5b506103cd600480360360208110156103a157600080fd5b81019080803573ffffffffffffffffffffffffffffffffffffffff169060200190929190505050610b8f565b005b3480156103db57600080fd5b506103e4610d9c565b6040518082815260200191505060405180910390f35b600080606080600085600180549050811115610461576040517f08c379a0000000000000000000000000000000000000000000000000000000008152600401808060200182810382526023815260200180610e146023913960400191505060405180910390fd5b600080600260008a8152602001908152602001600020600001549750600260008a8152602001908152602001600020600101549650600260008a815260200190815260200160002060020160009054906101000a900460ff1660018111156104c557fe5b90506000811415610509576040518060400160405280600a81526020017f4e6f74466f7253616c650000000000000000000000000000000000000000000081525095505b600181141561054b576040518060400160405280600781526020017f466f7253616c650000000000000000000000000000000000000000000000000081525095505b600260008a815260200190815260200160002060020160019054906101000a900460ff16600181111561057a57fe5b915060008214156105be576040518060400160405280600b81526020017f556e68617276657374656400000000000000000000000000000000000000000081525094505b6001821415610600576040518060400160405280600981526020017f486172766573746564000000000000000000000000000000000000000000000081525094505b600260008a815260200190815260200160002060020160029054906101000a900473ffffffffffffffffffffffffffffffffffffffff16935050505091939590929450565b6060600180548060200260200160405190810160405280929190818152602001828054801561069357602002820191906000526020600020905b81548152602001906001019080831161067f575b5050505050905090565b806001805490508111156106fc576040517f08c379a0000000000000000000000000000000000000000000000000000000008152600401808060200182810382526023815260200180610e146023913960400191505060405180910390fd5b600060026000848152602001908152602001600020905060018160020160006101000a81548160ff0219169083600181111561073457fe5b0217905550505050565b6001818154811061074b57fe5b906000526020600020016000915090505481565b610767610da9565b73ffffffffffffffffffffffffffffffffffffffff166000809054906101000a900473ffffffffffffffffffffffffffffffffffffffff1673ffffffffffffffffffffffffffffffffffffffff1614610828576040517f08c379a00000000000000000000000000000000000000000000000000000000081526004018080602001828103825260208152602001807f4f776e61626c653a2063616c6c6572206973206e6f7420746865206f776e657281525060200191505060405180910390fd5b600073ffffffffffffffffffffffffffffffffffffffff166000809054906101000a900473ffffffffffffffffffffffffffffffffffffffff1673ffffffffffffffffffffffffffffffffffffffff167f8be0079c531659141344cd1fd0a4f28419497f9722a3daafe3b4186f6b6457e060405160405180910390a360008060006101000a81548173ffffffffffffffffffffffffffffffffffffffff021916908373ffffffffffffffffffffffffffffffffffffffff160217905550565b60008060009054906101000a900473ffffffffffffffffffffffffffffffffffffffff16905090565b806002600082815260200190815260200160002060010154341015610980576040517f08c379a000000000000000000000000000000000000000000000000000000000815260040180806020018281038252603c815260200180610db2603c913960400191505060405180910390fd5b816001805490508111156109df576040517f08c379a0000000000000000000000000000000000000000000000000000000008152600401808060200182810382526023815260200180610e146023913960400191505060405180910390fd5b6000339050600060026000868152602001908152602001600020600101549050816002600087815260200190815260200160002060020160026101000a81548173ffffffffffffffffffffffffffffffffffffffff021916908373ffffffffffffffffffffffffffffffffffffffff16021790555060006002600087815260200190815260200160002060020160006101000a81548160ff02191690836001811115610a8757fe5b02179055506002600086815260200190815260200160002060020160029054906101000a900473ffffffffffffffffffffffffffffffffffffffff1673ffffffffffffffffffffffffffffffffffffffff166108fc829081150290604051600060405180830381858888f19350505050158015610b08573d6000803e3d6000fd5b503373ffffffffffffffffffffffffffffffffffffffff167f0738f4da267a110d810e6e89fc59e46be6de0c37b1d5cd559b267dc3688e74e060405180806020018281038252600a8152602001807f4e6577204275796572210000000000000000000000000000000000000000000081525060200191505060405180910390a25050505050565b610b97610da9565b73ffffffffffffffffffffffffffffffffffffffff166000809054906101000a900473ffffffffffffffffffffffffffffffffffffffff1673ffffffffffffffffffffffffffffffffffffffff1614610c58576040517f08c379a00000000000000000000000000000000000000000000000000000000081526004018080602001828103825260208152602001807f4f776e61626c653a2063616c6c6572206973206e6f7420746865206f776e657281525060200191505060405180910390fd5b600073ffffffffffffffffffffffffffffffffffffffff168173ffffffffffffffffffffffffffffffffffffffff161415610cde576040517f08c379a0000000000000000000000000000000000000000000000000000000008152600401808060200182810382526026815260200180610dee6026913960400191505060405180910390fd5b8073ffffffffffffffffffffffffffffffffffffffff166000809054906101000a900473ffffffffffffffffffffffffffffffffffffffff1673ffffffffffffffffffffffffffffffffffffffff167f8be0079c531659141344cd1fd0a4f28419497f9722a3daafe3b4186f6b6457e060405160405180910390a3806000806101000a81548173ffffffffffffffffffffffffffffffffffffffff021916908373ffffffffffffffffffffffffffffffffffffffff16021790555050565b6000600180549050905090565b60003390509056fe54686520616d6f756e74206f662065746865722073656e74206973206c6f776572207468616e20746865207072696365206f66207468652076696e654f776e61626c653a206e6577206f776e657220697320746865207a65726f20616464726573735468652076696e65496420737570706c69656420646f6573206e6f742065786973742ea2646970667358221220227a73ea3d34bf1469d527a94a31405fbcd67f5218c6cba313c61a6770e20f4d64736f6c63430006050033",
  "immutableReferences": {},
  "source": "// SPDX-License-Identifier: MIT\n\npragma solidity 0.6.5;\n\nimport \"@openzeppelin/contracts/access/Ownable.sol\";\n\n/// @title TokenVines Smart Contract Consensys Final Project\n/// @author jjlovaglio\n/// @notice This is a minimum viable prototype example for tokenizing an real asset to be fractionally owned by the purchasers of said token. In this case, a virtual representation of a vineyard.\ncontract TokenVines is Ownable {\n    uint256[] public vineIds; // vineIds array for UI rendering\n\n    event Log(address indexed sender, string message);\n\n    enum Sale {\n        NotForSale,\n        ForSale\n    }\n\n    enum State {\n        Unharvested,\n        Harvested\n    }\n\n    struct Vine {\n        uint256 vineId;\n        uint256 price;\n        Sale sale;\n        State state;\n        address payable vineOwner;\n    }\n\n    mapping(uint256 => Vine) vines; // tracks vineIds -> vine details\n\n    modifier paidEnough(uint256 _vineId) {\n        require(\n            msg.value >= vines[_vineId].price,\n            \"The amount of ether sent is lower than the price of the vine\"\n        );\n        _;\n    }\n\n    modifier vineExists(uint256 _vineId) {\n        require(\n            _vineId <= vineIds.length,\n            \"The vineId supplied does not exist.\"\n        );\n        _;\n    }\n\n    /// @notice Deploys the contract\n    /// @dev Initializes a prototype vineyard of 20 vines @ 10 eth per vine\n    constructor() public {\n        createVineyard();\n    }\n\n    /// @notice Returns the total number of vines in the vineyard\n    function getVineCount() public view returns (uint256) {\n        return vineIds.length;\n    }\n\n    /// @dev Returns an array containing all vineIds\n    function getVineIds() public view returns (uint256[] memory) {\n        return vineIds;\n    }\n\n    /// @notice Places a vine for sale\n    /// @param _vineId The id of a vine\n    function putVineForSale(uint256 _vineId) public vineExists(_vineId) {\n        Vine storage v = vines[_vineId];\n        v.sale = Sale.ForSale;\n    }\n\n    /// @notice Creates a Prototype vineyard\n    /// @dev All vines created are assigned to the deployer of the contract\n    function createVineyard() private onlyOwner {\n        uint256 numOfVines = 24;\n        uint256 pricePerVines = 100000000000000000; // in wei (0.1 eth)\n        for (uint256 i = 1; i < numOfVines + 1; i++) {\n            vineIds.push(i);\n            vines[i] = Vine({\n                vineId: i,\n                price: pricePerVines,\n                sale: Sale.ForSale,\n                state: State.Unharvested,\n                vineOwner: payable(owner())\n            });\n        }\n    }\n\n    /// @notice Allows anybody to purchase a vine from the vineyard\n    /// @dev Sends the funds to the current vine Owner\n    /// @param _vineId The existing ID of a vine\n    function buyVine(uint256 _vineId)\n        public\n        payable\n        paidEnough(_vineId)\n        vineExists(_vineId)\n    {\n        address buyer = msg.sender;\n        uint256 price = vines[_vineId].price;\n        // Update Owner\n        vines[_vineId].vineOwner = payable(buyer);\n        // Update forSale state\n        vines[_vineId].sale = Sale.NotForSale;\n\n        // Transfer money to seller\n        // this function doesn't work\n        vines[_vineId].vineOwner.transfer(price);\n        emit Log(msg.sender, \"New Buyer!\");\n    }\n\n    /// @notice Allows anybody to fetch information of a vine from the vineyard\n    /// @param _vineId The existing ID of a vine\n    /// @return vineId The id of the vine\n    /// @return price The price of the vine in wei\n    /// @return saleIs The sale status of the vine\n    /// @return stateIs The physical status of the vine\n    /// @return vineOwner The current owner of the vine\n    function fetchVine(uint256 _vineId)\n        public\n        view\n        vineExists(_vineId)\n        returns (\n            uint256 vineId,\n            uint256 price,\n            string memory saleIs,\n            string memory stateIs,\n            address vineOwner\n        )\n    {\n        uint256 state;\n        uint256 sale;\n        vineId = vines[_vineId].vineId;\n        price = vines[_vineId].price;\n        sale = uint256(vines[_vineId].sale);\n\n        if (sale == 0) {\n            saleIs = \"NotForSale\";\n        }\n\n        if (sale == 1) {\n            saleIs = \"ForSale\";\n        }\n\n        state = uint256(vines[_vineId].state);\n\n        if (state == 0) {\n            stateIs = \"Unharvested\";\n        }\n\n        if (state == 1) {\n            stateIs = \"Harvested\";\n        }\n\n        vineOwner = vines[_vineId].vineOwner;\n    }\n}\n",
  "sourcePath": "/Users/josejlovaglio/Development/Consensys/Consensys-Final-Project/contracts/TokenVines.sol",
  "compiler": {
    "name": "solc",
    "version": "0.6.5+commit.f956cc89.Emscripten.clang"
  },
  "schemaVersion": "3.4.3",
  "updatedAt": "2021-12-07T16:18:46.865Z",
  "networkType": "ethereum",
  "devdoc": {
    "author": "jjlovaglio",
    "methods": {
      "buyVine(uint256)": {
        "details": "Sends the funds to the current vine Owner",
        "params": {
          "_vineId": "The existing ID of a vine"
        }
      },
      "constructor": {
        "details": "Initializes a prototype vineyard of 20 vines @ 10 eth per vine"
      },
      "fetchVine(uint256)": {
        "params": {
          "_vineId": "The existing ID of a vine"
        },
        "returns": {
          "price": "The price of the vine in wei",
          "saleIs": "The sale status of the vine",
          "stateIs": "The physical status of the vine",
          "vineId": "The id of the vine",
          "vineOwner": "The current owner of the vine"
        }
      },
      "getVineIds()": {
        "details": "Returns an array containing all vineIds"
      },
      "owner()": {
        "details": "Returns the address of the current owner."
      },
      "putVineForSale(uint256)": {
        "params": {
          "_vineId": "The id of a vine"
        }
      },
      "renounceOwnership()": {
        "details": "Leaves the contract without owner. It will not be possible to call `onlyOwner` functions anymore. Can only be called by the current owner.     * NOTE: Renouncing ownership will leave the contract without an owner, thereby removing any functionality that is only available to the owner."
      },
      "transferOwnership(address)": {
        "details": "Transfers ownership of the contract to a new account (`newOwner`). Can only be called by the current owner."
      }
    },
    "title": "TokenVines Smart Contract Consensys Final Project"
  },
  "userdoc": {
    "methods": {
      "buyVine(uint256)": {
        "notice": "Allows anybody to purchase a vine from the vineyard"
      },
      "constructor": "Deploys the contract",
      "fetchVine(uint256)": {
        "notice": "Allows anybody to fetch information of a vine from the vineyard"
      },
      "getVineCount()": {
        "notice": "Returns the total number of vines in the vineyard"
      },
      "putVineForSale(uint256)": {
        "notice": "Places a vine for sale"
      }
    },
    "notice": "This is a minimum viable prototype example for tokenizing an real asset to be fractionally owned by the purchasers of said token. In this case, a virtual representation of a vineyard."
  }
}