{
  "contractName": "TokenVines",
  "abi": [
    {
      "inputs": [],
      "stateMutability": "nonpayable",
      "type": "constructor"
    },
    {
      "anonymous": false,
      "inputs": [
        {
          "indexed": true,
          "internalType": "address",
          "name": "previousOwner",
          "type": "address"
        },
        {
          "indexed": true,
          "internalType": "address",
          "name": "newOwner",
          "type": "address"
        }
      ],
      "name": "OwnershipTransferred",
      "type": "event"
    },
    {
      "inputs": [],
      "name": "owner",
      "outputs": [
        {
          "internalType": "address",
          "name": "",
          "type": "address"
        }
      ],
      "stateMutability": "view",
      "type": "function",
      "constant": true
    },
    {
      "inputs": [],
      "name": "renounceOwnership",
      "outputs": [],
      "stateMutability": "nonpayable",
      "type": "function"
    },
    {
      "inputs": [
        {
          "internalType": "address",
          "name": "newOwner",
          "type": "address"
        }
      ],
      "name": "transferOwnership",
      "outputs": [],
      "stateMutability": "nonpayable",
      "type": "function"
    },
    {
      "inputs": [],
      "name": "vineCount",
      "outputs": [
        {
          "internalType": "uint256",
          "name": "",
          "type": "uint256"
        }
      ],
      "stateMutability": "view",
      "type": "function",
      "constant": true
    },
    {
      "inputs": [
        {
          "internalType": "uint256",
          "name": "vineId",
          "type": "uint256"
        }
      ],
      "name": "putVineForSale",
      "outputs": [],
      "stateMutability": "nonpayable",
      "type": "function"
    },
    {
      "inputs": [
        {
          "internalType": "uint256",
          "name": "_count",
          "type": "uint256"
        },
        {
          "internalType": "uint256",
          "name": "_price",
          "type": "uint256"
        }
      ],
      "name": "createVineyard",
      "outputs": [],
      "stateMutability": "nonpayable",
      "type": "function"
    },
    {
      "inputs": [
        {
          "internalType": "uint256",
          "name": "_price",
          "type": "uint256"
        }
      ],
      "name": "addVine",
      "outputs": [],
      "stateMutability": "nonpayable",
      "type": "function"
    },
    {
      "inputs": [
        {
          "internalType": "uint256",
          "name": "_vineId",
          "type": "uint256"
        }
      ],
      "name": "buyVine",
      "outputs": [],
      "stateMutability": "payable",
      "type": "function",
      "payable": true
    },
    {
      "inputs": [
        {
          "internalType": "uint256",
          "name": "_vineId",
          "type": "uint256"
        }
      ],
      "name": "fetchVine",
      "outputs": [
        {
          "internalType": "uint256",
          "name": "vineId",
          "type": "uint256"
        },
        {
          "internalType": "uint256",
          "name": "price",
          "type": "uint256"
        },
        {
          "internalType": "string",
          "name": "saleIs",
          "type": "string"
        },
        {
          "internalType": "string",
          "name": "stateIs",
          "type": "string"
        },
        {
          "internalType": "address",
          "name": "seller",
          "type": "address"
        },
        {
          "internalType": "address",
          "name": "buyer",
          "type": "address"
        }
      ],
      "stateMutability": "view",
      "type": "function",
      "constant": true
    }
  ],
  "bytecode": "0x608060405234801561001057600080fd5b5060006100216100c460201b60201c565b9050806000806101000a81548173ffffffffffffffffffffffffffffffffffffffff021916908373ffffffffffffffffffffffffffffffffffffffff1602179055508073ffffffffffffffffffffffffffffffffffffffff16600073ffffffffffffffffffffffffffffffffffffffff167f8be0079c531659141344cd1fd0a4f28419497f9722a3daafe3b4186f6b6457e060405160405180910390a3506100cc565b600033905090565b6110f6806100db6000396000f3fe6080604052600436106100865760003560e01c806383fabd001161005957806383fabd00146102ac5780638da5cb5b146102f15780638f66557b1461034857806390181dc714610373578063f2fde38b146103a157610086565b80633b0ef6b61461008b5780634a426dd51461021f5780634b59dc271461025a578063715018a614610295575b600080fd5b34801561009757600080fd5b506100c4600480360360208110156100ae57600080fd5b81019080803590602001909291905050506103f2565b6040518087815260200186815260200180602001806020018573ffffffffffffffffffffffffffffffffffffffff1673ffffffffffffffffffffffffffffffffffffffff1681526020018473ffffffffffffffffffffffffffffffffffffffff1673ffffffffffffffffffffffffffffffffffffffff168152602001838103835287818151815260200191508051906020019080838360005b8381101561017857808201518184015260208101905061015d565b50505050905090810190601f1680156101a55780820380516001836020036101000a031916815260200191505b50838103825286818151815260200191508051906020019080838360005b838110156101de5780820151818401526020810190506101c3565b50505050905090810190601f16801561020b5780820380516001836020036101000a031916815260200191505b509850505050505050505060405180910390f35b34801561022b57600080fd5b506102586004803603602081101561024257600080fd5b8101908080359060200190929190505050610617565b005b34801561026657600080fd5b506102936004803603602081101561027d57600080fd5b8101908080359060200190929190505050610872565b005b3480156102a157600080fd5b506102aa6108f6565b005b3480156102b857600080fd5b506102ef600480360360408110156102cf57600080fd5b810190808035906020019092919080359060200190929190505050610a7e565b005b3480156102fd57600080fd5b50610306610cef565b604051808273ffffffffffffffffffffffffffffffffffffffff1673ffffffffffffffffffffffffffffffffffffffff16815260200191505060405180910390f35b34801561035457600080fd5b5061035d610d18565b6040518082815260200191505060405180910390f35b61039f6004803603602081101561038957600080fd5b8101908080359060200190929190505050610d1e565b005b3480156103ad57600080fd5b506103f0600480360360208110156103c457600080fd5b81019080803573ffffffffffffffffffffffffffffffffffffffff169060200190929190505050610e85565b005b600080606080600080600080600260008a8152602001908152602001600020600001549750600260008a8152602001908152602001600020600101549650600260008a815260200190815260200160002060020160009054906101000a900460ff16600181111561045f57fe5b905060008114156104a3576040518060400160405280600a81526020017f4e6f74466f7253616c650000000000000000000000000000000000000000000081525095505b60018114156104e5576040518060400160405280600781526020017f466f7253616c650000000000000000000000000000000000000000000000000081525095505b600260008a815260200190815260200160002060020160019054906101000a900460ff16600181111561051457fe5b91506000821415610558576040518060400160405280600b81526020017f556e68617276657374656400000000000000000000000000000000000000000081525094505b600182141561059a576040518060400160405280600981526020017f486172766573746564000000000000000000000000000000000000000000000081525094505b600260008a815260200190815260200160002060020160029054906101000a900473ffffffffffffffffffffffffffffffffffffffff169350600260008a815260200190815260200160002060030160009054906101000a900473ffffffffffffffffffffffffffffffffffffffff169250505091939550919395565b61061f611092565b73ffffffffffffffffffffffffffffffffffffffff166000809054906101000a900473ffffffffffffffffffffffffffffffffffffffff1673ffffffffffffffffffffffffffffffffffffffff16146106e0576040517f08c379a00000000000000000000000000000000000000000000000000000000081526004018080602001828103825260208152602001807f4f776e61626c653a2063616c6c6572206973206e6f7420746865206f776e657281525060200191505060405180910390fd5b600180540160018190555060003390506040518060c00160405280600154815260200183815260200160018081111561071557fe5b815260200160018081111561072657fe5b81526020018273ffffffffffffffffffffffffffffffffffffffff168152602001600073ffffffffffffffffffffffffffffffffffffffff16815250600260006001548152602001908152602001600020600082015181600001556020820151816001015560408201518160020160006101000a81548160ff021916908360018111156107af57fe5b021790555060608201518160020160016101000a81548160ff021916908360018111156107d857fe5b021790555060808201518160020160026101000a81548173ffffffffffffffffffffffffffffffffffffffff021916908373ffffffffffffffffffffffffffffffffffffffff16021790555060a08201518160030160006101000a81548173ffffffffffffffffffffffffffffffffffffffff021916908373ffffffffffffffffffffffffffffffffffffffff1602179055509050505050565b600060026000838152602001908152602001600020905060018160020160006101000a81548160ff021916908360018111156108aa57fe5b0217905550338160020160026101000a81548173ffffffffffffffffffffffffffffffffffffffff021916908373ffffffffffffffffffffffffffffffffffffffff1602179055505050565b6108fe611092565b73ffffffffffffffffffffffffffffffffffffffff166000809054906101000a900473ffffffffffffffffffffffffffffffffffffffff1673ffffffffffffffffffffffffffffffffffffffff16146109bf576040517f08c379a00000000000000000000000000000000000000000000000000000000081526004018080602001828103825260208152602001807f4f776e61626c653a2063616c6c6572206973206e6f7420746865206f776e657281525060200191505060405180910390fd5b600073ffffffffffffffffffffffffffffffffffffffff166000809054906101000a900473ffffffffffffffffffffffffffffffffffffffff1673ffffffffffffffffffffffffffffffffffffffff167f8be0079c531659141344cd1fd0a4f28419497f9722a3daafe3b4186f6b6457e060405160405180910390a360008060006101000a81548173ffffffffffffffffffffffffffffffffffffffff021916908373ffffffffffffffffffffffffffffffffffffffff160217905550565b610a86611092565b73ffffffffffffffffffffffffffffffffffffffff166000809054906101000a900473ffffffffffffffffffffffffffffffffffffffff1673ffffffffffffffffffffffffffffffffffffffff1614610b47576040517f08c379a00000000000000000000000000000000000000000000000000000000081526004018080602001828103825260208152602001807f4f776e61626c653a2063616c6c6572206973206e6f7420746865206f776e657281525060200191505060405180910390fd5b8160018190555060008090505b82811015610cea576040518060c00160405280828152602001838152602001600180811115610b7f57fe5b8152602001600180811115610b9057fe5b8152602001610b9d610cef565b73ffffffffffffffffffffffffffffffffffffffff168152602001600073ffffffffffffffffffffffffffffffffffffffff1681525060026000838152602001908152602001600020600082015181600001556020820151816001015560408201518160020160006101000a81548160ff02191690836001811115610c1e57fe5b021790555060608201518160020160016101000a81548160ff02191690836001811115610c4757fe5b021790555060808201518160020160026101000a81548173ffffffffffffffffffffffffffffffffffffffff021916908373ffffffffffffffffffffffffffffffffffffffff16021790555060a08201518160030160006101000a81548173ffffffffffffffffffffffffffffffffffffffff021916908373ffffffffffffffffffffffffffffffffffffffff1602179055509050508080600101915050610b54565b505050565b60008060009054906101000a900473ffffffffffffffffffffffffffffffffffffffff16905090565b60015481565b6000339050600060026000848152602001908152602001600020600101549050816002600085815260200190815260200160002060030160006101000a81548173ffffffffffffffffffffffffffffffffffffffff021916908373ffffffffffffffffffffffffffffffffffffffff16021790555060006002600085815260200190815260200160002060020160016101000a81548160ff02191690836001811115610dc657fe5b021790555060006002600085815260200190815260200160002060020160006101000a81548160ff02191690836001811115610dfe57fe5b02179055506002600084815260200190815260200160002060020160029054906101000a900473ffffffffffffffffffffffffffffffffffffffff1673ffffffffffffffffffffffffffffffffffffffff166108fc829081150290604051600060405180830381858888f19350505050158015610e7f573d6000803e3d6000fd5b50505050565b610e8d611092565b73ffffffffffffffffffffffffffffffffffffffff166000809054906101000a900473ffffffffffffffffffffffffffffffffffffffff1673ffffffffffffffffffffffffffffffffffffffff1614610f4e576040517f08c379a00000000000000000000000000000000000000000000000000000000081526004018080602001828103825260208152602001807f4f776e61626c653a2063616c6c6572206973206e6f7420746865206f776e657281525060200191505060405180910390fd5b600073ffffffffffffffffffffffffffffffffffffffff168173ffffffffffffffffffffffffffffffffffffffff161415610fd4576040517f08c379a000000000000000000000000000000000000000000000000000000000815260040180806020018281038252602681526020018061109b6026913960400191505060405180910390fd5b8073ffffffffffffffffffffffffffffffffffffffff166000809054906101000a900473ffffffffffffffffffffffffffffffffffffffff1673ffffffffffffffffffffffffffffffffffffffff167f8be0079c531659141344cd1fd0a4f28419497f9722a3daafe3b4186f6b6457e060405160405180910390a3806000806101000a81548173ffffffffffffffffffffffffffffffffffffffff021916908373ffffffffffffffffffffffffffffffffffffffff16021790555050565b60003390509056fe4f776e61626c653a206e6577206f776e657220697320746865207a65726f2061646472657373a26469706673582212207ae56d20c2e2c9417814110f2b537b3365d67bf94670521ae50b23f61f09a5c064736f6c63430006010033",
  "source": "// SPDX-License-Identifier: MIT\n\npragma solidity >=0.5.4;\n\nimport \"@openzeppelin/contracts/access/Ownable.sol\";\n\n// Define a contract 'Lemonade Stand'\ncontract TokenVines is Ownable {\n    // Variable: SKU count\n    uint256 public vineCount;\n\n    // Event: 'State' with value 'ForSale'\n    enum Sale {\n        NotForSale,\n        ForSale\n    }\n\n    enum State {\n        Unharvested,\n        Harvested\n    }\n\n    struct Vine {\n        uint256 vineId;\n        uint256 price;\n        Sale sale;\n        State state;\n        address payable seller;\n        address payable buyer;\n    }\n\n    // Define a public mapping 'items' that maps the SKU (a number) to an Item.\n    mapping(uint256 => Vine) vines;\n\n    constructor() public {}\n\n    // TODO: create putVineForSale() function\n    // TODO: test all functionality in truffle develop\n    // TODO: research how to handle events in front end\n\n    function putVineForSale(uint256 vineId) public {\n        // fetch vine\n        // change state\n\n        Vine storage v = vines[vineId];\n        v.sale = Sale.ForSale;\n        v.seller = msg.sender;\n    }\n\n    function createVineyard(uint256 _count, uint256 _price) public onlyOwner {\n        vineCount = _count;\n        for (uint256 i = 0; i < _count; i++) {\n            vines[i] = Vine({\n                vineId: i,\n                price: _price,\n                sale: Sale.ForSale,\n                state: State.Harvested,\n                seller: payable(owner()),\n                buyer: payable(address(0))\n            });\n        }\n    }\n\n    function addVine(uint256 _price) public onlyOwner {\n        // Increment sku\n        vineCount = vineCount + 1;\n        // convert to address payable?\n        address payable seller = payable(msg.sender);\n        // Add the new item into inventory and mark it for sale\n        vines[vineCount] = Vine({\n            vineId: vineCount,\n            price: _price,\n            sale: Sale.ForSale,\n            state: State.Harvested,\n            seller: seller,\n            buyer: payable(address(0))\n        });\n    }\n\n    function buyVine(uint256 _vineId) public payable {\n        // TODO: debug this function, it is not working\n        address buyer = msg.sender;\n        uint256 price = vines[_vineId].price;\n\n        // TODO: create forSale modifier\n\n        // Update Buyer\n        vines[_vineId].buyer = payable(buyer);\n\n        // Update State\n        vines[_vineId].state = State.Unharvested;\n\n        // Update Sale\n        vines[_vineId].sale = Sale.NotForSale;\n\n        // Transfer money to seller\n        // this function doesn't work\n        vines[_vineId].seller.transfer(price);\n    }\n\n    function fetchVine(uint256 _vineId)\n        public\n        view\n        returns (\n            uint256 vineId,\n            uint256 price,\n            string memory saleIs,\n            string memory stateIs,\n            address seller,\n            address buyer\n        )\n    {\n        uint256 state;\n        uint256 sale;\n        vineId = vines[_vineId].vineId;\n        price = vines[_vineId].price;\n        sale = uint256(vines[_vineId].sale);\n\n        if (sale == 0) {\n            saleIs = \"NotForSale\";\n        }\n\n        if (sale == 1) {\n            saleIs = \"ForSale\";\n        }\n\n        state = uint256(vines[_vineId].state);\n\n        if (state == 0) {\n            stateIs = \"Unharvested\";\n        }\n\n        if (state == 1) {\n            stateIs = \"Harvested\";\n        }\n\n        seller = vines[_vineId].seller;\n        buyer = vines[_vineId].buyer;\n    }\n}\n",
  "sourcePath": "/Users/josejlovaglio/Development/Consensys/Consensys-Final-Project/contracts/TokenVines.sol",
  "compiler": {
    "name": "solc",
    "version": "0.6.1+commit.e6f7d5a4.Emscripten.clang"
  },
  "schemaVersion": "3.4.3",
  "updatedAt": "2021-11-22T21:57:51.738Z",
  "networkType": "ethereum",
  "devdoc": {
    "methods": {
      "owner()": {
        "details": "Returns the address of the current owner."
      },
      "renounceOwnership()": {
        "details": "Leaves the contract without owner. It will not be possible to call `onlyOwner` functions anymore. Can only be called by the current owner.     * NOTE: Renouncing ownership will leave the contract without an owner, thereby removing any functionality that is only available to the owner."
      },
      "transferOwnership(address)": {
        "details": "Transfers ownership of the contract to a new account (`newOwner`). Can only be called by the current owner."
      }
    }
  },
  "userdoc": {
    "methods": {}
  }
}