{
  "contractName": "TokenVines",
  "abi": [
    {
      "inputs": [],
      "stateMutability": "nonpayable",
      "type": "constructor"
    },
    {
      "anonymous": false,
      "inputs": [
        {
          "indexed": true,
          "internalType": "address",
          "name": "sender",
          "type": "address"
        },
        {
          "indexed": false,
          "internalType": "string",
          "name": "message",
          "type": "string"
        }
      ],
      "name": "Log",
      "type": "event"
    },
    {
      "anonymous": false,
      "inputs": [
        {
          "indexed": true,
          "internalType": "address",
          "name": "previousOwner",
          "type": "address"
        },
        {
          "indexed": true,
          "internalType": "address",
          "name": "newOwner",
          "type": "address"
        }
      ],
      "name": "OwnershipTransferred",
      "type": "event"
    },
    {
      "inputs": [],
      "name": "owner",
      "outputs": [
        {
          "internalType": "address",
          "name": "",
          "type": "address"
        }
      ],
      "stateMutability": "view",
      "type": "function",
      "constant": true
    },
    {
      "inputs": [],
      "name": "renounceOwnership",
      "outputs": [],
      "stateMutability": "nonpayable",
      "type": "function"
    },
    {
      "inputs": [
        {
          "internalType": "address",
          "name": "newOwner",
          "type": "address"
        }
      ],
      "name": "transferOwnership",
      "outputs": [],
      "stateMutability": "nonpayable",
      "type": "function"
    },
    {
      "inputs": [
        {
          "internalType": "uint256",
          "name": "",
          "type": "uint256"
        }
      ],
      "name": "vineIds",
      "outputs": [
        {
          "internalType": "uint256",
          "name": "",
          "type": "uint256"
        }
      ],
      "stateMutability": "view",
      "type": "function",
      "constant": true
    },
    {
      "inputs": [],
      "name": "getVineCount",
      "outputs": [
        {
          "internalType": "uint256",
          "name": "",
          "type": "uint256"
        }
      ],
      "stateMutability": "view",
      "type": "function",
      "constant": true
    },
    {
      "inputs": [],
      "name": "getVineIds",
      "outputs": [
        {
          "internalType": "uint256[]",
          "name": "",
          "type": "uint256[]"
        }
      ],
      "stateMutability": "view",
      "type": "function",
      "constant": true
    },
    {
      "inputs": [
        {
          "internalType": "uint256",
          "name": "vineId",
          "type": "uint256"
        }
      ],
      "name": "putVineForSale",
      "outputs": [],
      "stateMutability": "nonpayable",
      "type": "function"
    },
    {
      "inputs": [
        {
          "internalType": "uint256",
          "name": "_vineId",
          "type": "uint256"
        }
      ],
      "name": "buyVine",
      "outputs": [],
      "stateMutability": "payable",
      "type": "function",
      "payable": true
    },
    {
      "inputs": [
        {
          "internalType": "uint256",
          "name": "_vineId",
          "type": "uint256"
        }
      ],
      "name": "fetchVine",
      "outputs": [
        {
          "internalType": "uint256",
          "name": "vineId",
          "type": "uint256"
        },
        {
          "internalType": "uint256",
          "name": "price",
          "type": "uint256"
        },
        {
          "internalType": "string",
          "name": "saleIs",
          "type": "string"
        },
        {
          "internalType": "string",
          "name": "stateIs",
          "type": "string"
        },
        {
          "internalType": "address",
          "name": "vineOwner",
          "type": "address"
        }
      ],
      "stateMutability": "view",
      "type": "function",
      "constant": true
    }
  ],
  "bytecode": "0x608060405234801561001057600080fd5b5060006100216100d260201b60201c565b9050806000806101000a81548173ffffffffffffffffffffffffffffffffffffffff021916908373ffffffffffffffffffffffffffffffffffffffff1602179055508073ffffffffffffffffffffffffffffffffffffffff16600073ffffffffffffffffffffffffffffffffffffffff167f8be0079c531659141344cd1fd0a4f28419497f9722a3daafe3b4186f6b6457e060405160405180910390a3506100cd6100da60201b60201c565b61034f565b600033905090565b6100e86100d260201b60201c565b73ffffffffffffffffffffffffffffffffffffffff166000809054906101000a900473ffffffffffffffffffffffffffffffffffffffff1673ffffffffffffffffffffffffffffffffffffffff16146101a9576040517f08c379a00000000000000000000000000000000000000000000000000000000081526004018080602001828103825260208152602001807f4f776e61626c653a2063616c6c6572206973206e6f7420746865206f776e657281525060200191505060405180910390fd5b6000600a90506000606490506000600190505b600183018110156103215760018190806001815401808255809150506001900390600052602060002001600090919091909150556040518060a0016040528082815260200183815260200160018081111561021357fe5b81526020016000600181111561022557fe5b815260200161023861032660201b60201c565b73ffffffffffffffffffffffffffffffffffffffff1681525060026000838152602001908152602001600020600082015181600001556020820151816001015560408201518160020160006101000a81548160ff0219169083600181111561029c57fe5b021790555060608201518160020160016101000a81548160ff021916908360018111156102c557fe5b021790555060808201518160020160026101000a81548173ffffffffffffffffffffffffffffffffffffffff021916908373ffffffffffffffffffffffffffffffffffffffff16021790555090505080806001019150506101bc565b505050565b60008060009054906101000a900473ffffffffffffffffffffffffffffffffffffffff16905090565b610c7c8061035e6000396000f3fe6080604052600436106100865760003560e01c8063715018a611610059578063715018a6146102e25780638da5cb5b146102f957806390181dc714610350578063f2fde38b1461037e578063ff685b7e146103cf57610086565b80633b0ef6b61461008b5780634b52d53e146101ec5780634b59dc27146102585780634de0e0ae14610293575b600080fd5b34801561009757600080fd5b506100c4600480360360208110156100ae57600080fd5b81019080803590602001909291905050506103fa565b6040518086815260200185815260200180602001806020018473ffffffffffffffffffffffffffffffffffffffff1673ffffffffffffffffffffffffffffffffffffffff168152602001838103835286818151815260200191508051906020019080838360005b8381101561014657808201518184015260208101905061012b565b50505050905090810190601f1680156101735780820380516001836020036101000a031916815260200191505b50838103825285818151815260200191508051906020019080838360005b838110156101ac578082015181840152602081019050610191565b50505050905090810190601f1680156101d95780820380516001836020036101000a031916815260200191505b5097505050505050505060405180910390f35b3480156101f857600080fd5b506102016105e5565b6040518080602001828103825283818151815260200191508051906020019060200280838360005b83811015610244578082015181840152602081019050610229565b505050509050019250505060405180910390f35b34801561026457600080fd5b506102916004803603602081101561027b57600080fd5b810190808035906020019092919050505061063d565b005b34801561029f57600080fd5b506102cc600480360360208110156102b657600080fd5b810190808035906020019092919050505061067e565b6040518082815260200191505060405180910390f35b3480156102ee57600080fd5b506102f761069f565b005b34801561030557600080fd5b5061030e610827565b604051808273ffffffffffffffffffffffffffffffffffffffff1673ffffffffffffffffffffffffffffffffffffffff16815260200191505060405180910390f35b61037c6004803603602081101561036657600080fd5b8101908080359060200190929190505050610850565b005b34801561038a57600080fd5b506103cd600480360360208110156103a157600080fd5b81019080803573ffffffffffffffffffffffffffffffffffffffff1690602001909291905050506109fe565b005b3480156103db57600080fd5b506103e4610c0b565b6040518082815260200191505060405180910390f35b600080606080600080600060026000898152602001908152602001600020600001549650600260008981526020019081526020016000206001015495506002600089815260200190815260200160002060020160009054906101000a900460ff16600181111561046657fe5b905060008114156104aa576040518060400160405280600a81526020017f4e6f74466f7253616c650000000000000000000000000000000000000000000081525094505b60018114156104ec576040518060400160405280600781526020017f466f7253616c650000000000000000000000000000000000000000000000000081525094505b6002600089815260200190815260200160002060020160019054906101000a900460ff16600181111561051b57fe5b9150600082141561055f576040518060400160405280600b81526020017f556e68617276657374656400000000000000000000000000000000000000000081525093505b60018214156105a1576040518060400160405280600981526020017f486172766573746564000000000000000000000000000000000000000000000081525093505b6002600089815260200190815260200160002060020160029054906101000a900473ffffffffffffffffffffffffffffffffffffffff169250505091939590929450565b6060600180548060200260200160405190810160405280929190818152602001828054801561063357602002820191906000526020600020905b81548152602001906001019080831161061f575b5050505050905090565b600060026000838152602001908152602001600020905060018160020160006101000a81548160ff0219169083600181111561067557fe5b02179055505050565b6001818154811061068b57fe5b906000526020600020016000915090505481565b6106a7610c18565b73ffffffffffffffffffffffffffffffffffffffff166000809054906101000a900473ffffffffffffffffffffffffffffffffffffffff1673ffffffffffffffffffffffffffffffffffffffff1614610768576040517f08c379a00000000000000000000000000000000000000000000000000000000081526004018080602001828103825260208152602001807f4f776e61626c653a2063616c6c6572206973206e6f7420746865206f776e657281525060200191505060405180910390fd5b600073ffffffffffffffffffffffffffffffffffffffff166000809054906101000a900473ffffffffffffffffffffffffffffffffffffffff1673ffffffffffffffffffffffffffffffffffffffff167f8be0079c531659141344cd1fd0a4f28419497f9722a3daafe3b4186f6b6457e060405160405180910390a360008060006101000a81548173ffffffffffffffffffffffffffffffffffffffff021916908373ffffffffffffffffffffffffffffffffffffffff160217905550565b60008060009054906101000a900473ffffffffffffffffffffffffffffffffffffffff16905090565b6000339050600060026000848152602001908152602001600020600101549050816002600085815260200190815260200160002060020160026101000a81548173ffffffffffffffffffffffffffffffffffffffff021916908373ffffffffffffffffffffffffffffffffffffffff16021790555060006002600085815260200190815260200160002060020160006101000a81548160ff021916908360018111156108f857fe5b02179055506002600084815260200190815260200160002060020160029054906101000a900473ffffffffffffffffffffffffffffffffffffffff1673ffffffffffffffffffffffffffffffffffffffff166108fc829081150290604051600060405180830381858888f19350505050158015610979573d6000803e3d6000fd5b503373ffffffffffffffffffffffffffffffffffffffff167f0738f4da267a110d810e6e89fc59e46be6de0c37b1d5cd559b267dc3688e74e060405180806020018281038252600a8152602001807f4e6577204275796572210000000000000000000000000000000000000000000081525060200191505060405180910390a2505050565b610a06610c18565b73ffffffffffffffffffffffffffffffffffffffff166000809054906101000a900473ffffffffffffffffffffffffffffffffffffffff1673ffffffffffffffffffffffffffffffffffffffff1614610ac7576040517f08c379a00000000000000000000000000000000000000000000000000000000081526004018080602001828103825260208152602001807f4f776e61626c653a2063616c6c6572206973206e6f7420746865206f776e657281525060200191505060405180910390fd5b600073ffffffffffffffffffffffffffffffffffffffff168173ffffffffffffffffffffffffffffffffffffffff161415610b4d576040517f08c379a0000000000000000000000000000000000000000000000000000000008152600401808060200182810382526026815260200180610c216026913960400191505060405180910390fd5b8073ffffffffffffffffffffffffffffffffffffffff166000809054906101000a900473ffffffffffffffffffffffffffffffffffffffff1673ffffffffffffffffffffffffffffffffffffffff167f8be0079c531659141344cd1fd0a4f28419497f9722a3daafe3b4186f6b6457e060405160405180910390a3806000806101000a81548173ffffffffffffffffffffffffffffffffffffffff021916908373ffffffffffffffffffffffffffffffffffffffff16021790555050565b6000600180549050905090565b60003390509056fe4f776e61626c653a206e6577206f776e657220697320746865207a65726f2061646472657373a26469706673582212200011169d33b8e1bbaaddb0107c8a7f46e4cd6d0f7a80e7129281326b23298eaf64736f6c63430006050033",
  "immutableReferences": {},
  "source": "// SPDX-License-Identifier: MIT\n\npragma solidity 0.6.5;\n\nimport \"@openzeppelin/contracts/access/Ownable.sol\";\n\n// Define a contract 'Lemonade Stand'\ncontract TokenVines is Ownable {\n    // vineIds array for UI rendering\n    uint256[] public vineIds;\n\n    event Log(address indexed sender, string message);\n\n    enum Sale {\n        NotForSale,\n        ForSale\n    }\n\n    enum State {\n        Unharvested,\n        Harvested\n    }\n\n    struct Vine {\n        uint256 vineId;\n        uint256 price;\n        Sale sale;\n        State state;\n        address payable vineOwner;\n    }\n\n    // Define a public mapping 'items' that maps the SKU (a number) to an Item.\n    mapping(uint256 => Vine) vines;\n\n    constructor() public {\n        createVineyard();\n    }\n\n    function getVineCount() public view returns (uint256) {\n        return vineIds.length;\n    }\n\n    function getVineIds() public view returns (uint256[] memory) {\n        return vineIds;\n    }\n\n    function putVineForSale(uint256 vineId) public {\n        Vine storage v = vines[vineId];\n        v.sale = Sale.ForSale;\n    }\n\n    function createVineyard() private onlyOwner {\n        uint256 numOfVines = 10;\n        uint256 pricePerVines = 100;\n        for (uint256 i = 1; i < numOfVines + 1; i++) {\n            vineIds.push(i);\n            vines[i] = Vine({\n                vineId: i,\n                price: pricePerVines,\n                sale: Sale.ForSale,\n                state: State.Unharvested,\n                vineOwner: payable(owner())\n            });\n        }\n    }\n\n    function buyVine(uint256 _vineId) public payable {\n        // TODO: paid enough modifier\n\n        address buyer = msg.sender;\n        uint256 price = vines[_vineId].price;\n        // Update Owner\n        vines[_vineId].vineOwner = payable(buyer);\n        // Update forSale state\n        vines[_vineId].sale = Sale.NotForSale;\n\n        // Transfer money to seller\n        // this function doesn't work\n        vines[_vineId].vineOwner.transfer(price);\n        emit Log(msg.sender, \"New Buyer!\");\n    }\n\n    function fetchVine(uint256 _vineId)\n        public\n        view\n        returns (\n            uint256 vineId,\n            uint256 price,\n            string memory saleIs,\n            string memory stateIs,\n            address vineOwner\n        )\n    {\n        uint256 state;\n        uint256 sale;\n        vineId = vines[_vineId].vineId;\n        price = vines[_vineId].price;\n        sale = uint256(vines[_vineId].sale);\n\n        if (sale == 0) {\n            saleIs = \"NotForSale\";\n        }\n\n        if (sale == 1) {\n            saleIs = \"ForSale\";\n        }\n\n        state = uint256(vines[_vineId].state);\n\n        if (state == 0) {\n            stateIs = \"Unharvested\";\n        }\n\n        if (state == 1) {\n            stateIs = \"Harvested\";\n        }\n\n        vineOwner = vines[_vineId].vineOwner;\n    }\n}\n",
  "sourcePath": "/Users/josejlovaglio/Development/Consensys/Consensys-Final-Project/contracts/TokenVines.sol",
  "compiler": {
    "name": "solc",
    "version": "0.6.5+commit.f956cc89.Emscripten.clang"
  },
  "schemaVersion": "3.4.3",
  "updatedAt": "2021-12-04T19:43:00.347Z",
  "networkType": "ethereum",
  "devdoc": {
    "methods": {
      "owner()": {
        "details": "Returns the address of the current owner."
      },
      "renounceOwnership()": {
        "details": "Leaves the contract without owner. It will not be possible to call `onlyOwner` functions anymore. Can only be called by the current owner.     * NOTE: Renouncing ownership will leave the contract without an owner, thereby removing any functionality that is only available to the owner."
      },
      "transferOwnership(address)": {
        "details": "Transfers ownership of the contract to a new account (`newOwner`). Can only be called by the current owner."
      }
    }
  },
  "userdoc": {
    "methods": {}
  }
}