{
  "contractName": "TokenVines",
  "abi": [
    {
      "inputs": [],
      "stateMutability": "nonpayable",
      "type": "constructor"
    },
    {
      "anonymous": false,
      "inputs": [
        {
          "indexed": true,
          "internalType": "address",
          "name": "previousOwner",
          "type": "address"
        },
        {
          "indexed": true,
          "internalType": "address",
          "name": "newOwner",
          "type": "address"
        }
      ],
      "name": "OwnershipTransferred",
      "type": "event"
    },
    {
      "inputs": [],
      "name": "owner",
      "outputs": [
        {
          "internalType": "address",
          "name": "",
          "type": "address"
        }
      ],
      "stateMutability": "view",
      "type": "function",
      "constant": true
    },
    {
      "inputs": [],
      "name": "renounceOwnership",
      "outputs": [],
      "stateMutability": "nonpayable",
      "type": "function"
    },
    {
      "inputs": [
        {
          "internalType": "address",
          "name": "newOwner",
          "type": "address"
        }
      ],
      "name": "transferOwnership",
      "outputs": [],
      "stateMutability": "nonpayable",
      "type": "function"
    },
    {
      "inputs": [],
      "name": "vineCount",
      "outputs": [
        {
          "internalType": "uint256",
          "name": "",
          "type": "uint256"
        }
      ],
      "stateMutability": "view",
      "type": "function",
      "constant": true
    },
    {
      "inputs": [
        {
          "internalType": "uint256",
          "name": "",
          "type": "uint256"
        }
      ],
      "name": "vineIds",
      "outputs": [
        {
          "internalType": "uint256",
          "name": "",
          "type": "uint256"
        }
      ],
      "stateMutability": "view",
      "type": "function",
      "constant": true
    },
    {
      "inputs": [],
      "name": "getVineIds",
      "outputs": [
        {
          "internalType": "uint256[]",
          "name": "",
          "type": "uint256[]"
        }
      ],
      "stateMutability": "view",
      "type": "function",
      "constant": true
    },
    {
      "inputs": [
        {
          "internalType": "uint256",
          "name": "vineId",
          "type": "uint256"
        }
      ],
      "name": "putVineForSale",
      "outputs": [],
      "stateMutability": "nonpayable",
      "type": "function"
    },
    {
      "inputs": [
        {
          "internalType": "uint256",
          "name": "_count",
          "type": "uint256"
        },
        {
          "internalType": "uint256",
          "name": "_price",
          "type": "uint256"
        }
      ],
      "name": "createVineyard",
      "outputs": [
        {
          "internalType": "uint256",
          "name": "",
          "type": "uint256"
        }
      ],
      "stateMutability": "nonpayable",
      "type": "function"
    },
    {
      "inputs": [
        {
          "internalType": "uint256",
          "name": "_vineId",
          "type": "uint256"
        }
      ],
      "name": "buyVine",
      "outputs": [],
      "stateMutability": "payable",
      "type": "function",
      "payable": true
    },
    {
      "inputs": [
        {
          "internalType": "uint256",
          "name": "_vineId",
          "type": "uint256"
        }
      ],
      "name": "fetchVine",
      "outputs": [
        {
          "internalType": "uint256",
          "name": "vineId",
          "type": "uint256"
        },
        {
          "internalType": "uint256",
          "name": "price",
          "type": "uint256"
        },
        {
          "internalType": "string",
          "name": "saleIs",
          "type": "string"
        },
        {
          "internalType": "string",
          "name": "stateIs",
          "type": "string"
        },
        {
          "internalType": "address",
          "name": "seller",
          "type": "address"
        },
        {
          "internalType": "address",
          "name": "buyer",
          "type": "address"
        }
      ],
      "stateMutability": "view",
      "type": "function",
      "constant": true
    }
  ],
  "bytecode": "0x608060405234801561001057600080fd5b5060006100216100c460201b60201c565b9050806000806101000a81548173ffffffffffffffffffffffffffffffffffffffff021916908373ffffffffffffffffffffffffffffffffffffffff1602179055508073ffffffffffffffffffffffffffffffffffffffff16600073ffffffffffffffffffffffffffffffffffffffff167f8be0079c531659141344cd1fd0a4f28419497f9722a3daafe3b4186f6b6457e060405160405180910390a3506100cc565b600033905090565b610f23806100db6000396000f3fe6080604052600436106100915760003560e01c806383fabd001161005957806383fabd00146103375780638da5cb5b146103905780638f66557b146103e757806390181dc714610412578063f2fde38b1461044057610091565b80633b0ef6b6146100965780634b52d53e1461022a5780634b59dc27146102965780634de0e0ae146102d1578063715018a614610320575b600080fd5b3480156100a257600080fd5b506100cf600480360360208110156100b957600080fd5b8101908080359060200190929190505050610491565b6040518087815260200186815260200180602001806020018573ffffffffffffffffffffffffffffffffffffffff1673ffffffffffffffffffffffffffffffffffffffff1681526020018473ffffffffffffffffffffffffffffffffffffffff1673ffffffffffffffffffffffffffffffffffffffff168152602001838103835287818151815260200191508051906020019080838360005b83811015610183578082015181840152602081019050610168565b50505050905090810190601f1680156101b05780820380516001836020036101000a031916815260200191505b50838103825286818151815260200191508051906020019080838360005b838110156101e95780820151818401526020810190506101ce565b50505050905090810190601f1680156102165780820380516001836020036101000a031916815260200191505b509850505050505050505060405180910390f35b34801561023657600080fd5b5061023f6106b6565b6040518080602001828103825283818151815260200191508051906020019060200280838360005b83811015610282578082015181840152602081019050610267565b505050509050019250505060405180910390f35b3480156102a257600080fd5b506102cf600480360360208110156102b957600080fd5b810190808035906020019092919050505061070e565b005b3480156102dd57600080fd5b5061030a600480360360208110156102f457600080fd5b8101908080359060200190929190505050610792565b6040518082815260200191505060405180910390f35b34801561032c57600080fd5b506103356107b3565b005b34801561034357600080fd5b5061037a6004803603604081101561035a57600080fd5b81019080803590602001909291908035906020019092919050505061093b565b6040518082815260200191505060405180910390f35b34801561039c57600080fd5b506103a5610b1c565b604051808273ffffffffffffffffffffffffffffffffffffffff1673ffffffffffffffffffffffffffffffffffffffff16815260200191505060405180910390f35b3480156103f357600080fd5b506103fc610b45565b6040518082815260200191505060405180910390f35b61043e6004803603602081101561042857600080fd5b8101908080359060200190929190505050610b4b565b005b34801561044c57600080fd5b5061048f6004803603602081101561046357600080fd5b81019080803573ffffffffffffffffffffffffffffffffffffffff169060200190929190505050610cb2565b005b600080606080600080600080600360008a8152602001908152602001600020600001549750600360008a8152602001908152602001600020600101549650600360008a815260200190815260200160002060020160009054906101000a900460ff1660018111156104fe57fe5b90506000811415610542576040518060400160405280600a81526020017f4e6f74466f7253616c650000000000000000000000000000000000000000000081525095505b6001811415610584576040518060400160405280600781526020017f466f7253616c650000000000000000000000000000000000000000000000000081525095505b600360008a815260200190815260200160002060020160019054906101000a900460ff1660018111156105b357fe5b915060008214156105f7576040518060400160405280600b81526020017f556e68617276657374656400000000000000000000000000000000000000000081525094505b6001821415610639576040518060400160405280600981526020017f486172766573746564000000000000000000000000000000000000000000000081525094505b600360008a815260200190815260200160002060020160029054906101000a900473ffffffffffffffffffffffffffffffffffffffff169350600360008a815260200190815260200160002060030160009054906101000a900473ffffffffffffffffffffffffffffffffffffffff169250505091939550919395565b6060600280548060200260200160405190810160405280929190818152602001828054801561070457602002820191906000526020600020905b8154815260200190600101908083116106f0575b5050505050905090565b600060036000838152602001908152602001600020905060018160020160006101000a81548160ff0219169083600181111561074657fe5b0217905550338160020160026101000a81548173ffffffffffffffffffffffffffffffffffffffff021916908373ffffffffffffffffffffffffffffffffffffffff1602179055505050565b6002818154811061079f57fe5b906000526020600020016000915090505481565b6107bb610ebf565b73ffffffffffffffffffffffffffffffffffffffff166000809054906101000a900473ffffffffffffffffffffffffffffffffffffffff1673ffffffffffffffffffffffffffffffffffffffff161461087c576040517f08c379a00000000000000000000000000000000000000000000000000000000081526004018080602001828103825260208152602001807f4f776e61626c653a2063616c6c6572206973206e6f7420746865206f776e657281525060200191505060405180910390fd5b600073ffffffffffffffffffffffffffffffffffffffff166000809054906101000a900473ffffffffffffffffffffffffffffffffffffffff1673ffffffffffffffffffffffffffffffffffffffff167f8be0079c531659141344cd1fd0a4f28419497f9722a3daafe3b4186f6b6457e060405160405180910390a360008060006101000a81548173ffffffffffffffffffffffffffffffffffffffff021916908373ffffffffffffffffffffffffffffffffffffffff160217905550565b600080600190505b60018401811015610b105760028190806001815401808255809150506001900390600052602060002001600090919091909150556040518060c0016040528082815260200184815260200160018081111561099a57fe5b81526020016001808111156109ab57fe5b81526020016109b8610b1c565b73ffffffffffffffffffffffffffffffffffffffff168152602001600073ffffffffffffffffffffffffffffffffffffffff1681525060036000838152602001908152602001600020600082015181600001556020820151816001015560408201518160020160006101000a81548160ff02191690836001811115610a3957fe5b021790555060608201518160020160016101000a81548160ff02191690836001811115610a6257fe5b021790555060808201518160020160026101000a81548173ffffffffffffffffffffffffffffffffffffffff021916908373ffffffffffffffffffffffffffffffffffffffff16021790555060a08201518160030160006101000a81548173ffffffffffffffffffffffffffffffffffffffff021916908373ffffffffffffffffffffffffffffffffffffffff16021790555090505060018054016001819055508080600101915050610943565b50600154905092915050565b60008060009054906101000a900473ffffffffffffffffffffffffffffffffffffffff16905090565b60015481565b6000339050600060036000848152602001908152602001600020600101549050816003600085815260200190815260200160002060030160006101000a81548173ffffffffffffffffffffffffffffffffffffffff021916908373ffffffffffffffffffffffffffffffffffffffff16021790555060006003600085815260200190815260200160002060020160016101000a81548160ff02191690836001811115610bf357fe5b021790555060006003600085815260200190815260200160002060020160006101000a81548160ff02191690836001811115610c2b57fe5b02179055506003600084815260200190815260200160002060020160029054906101000a900473ffffffffffffffffffffffffffffffffffffffff1673ffffffffffffffffffffffffffffffffffffffff166108fc829081150290604051600060405180830381858888f19350505050158015610cac573d6000803e3d6000fd5b50505050565b610cba610ebf565b73ffffffffffffffffffffffffffffffffffffffff166000809054906101000a900473ffffffffffffffffffffffffffffffffffffffff1673ffffffffffffffffffffffffffffffffffffffff1614610d7b576040517f08c379a00000000000000000000000000000000000000000000000000000000081526004018080602001828103825260208152602001807f4f776e61626c653a2063616c6c6572206973206e6f7420746865206f776e657281525060200191505060405180910390fd5b600073ffffffffffffffffffffffffffffffffffffffff168173ffffffffffffffffffffffffffffffffffffffff161415610e01576040517f08c379a0000000000000000000000000000000000000000000000000000000008152600401808060200182810382526026815260200180610ec86026913960400191505060405180910390fd5b8073ffffffffffffffffffffffffffffffffffffffff166000809054906101000a900473ffffffffffffffffffffffffffffffffffffffff1673ffffffffffffffffffffffffffffffffffffffff167f8be0079c531659141344cd1fd0a4f28419497f9722a3daafe3b4186f6b6457e060405160405180910390a3806000806101000a81548173ffffffffffffffffffffffffffffffffffffffff021916908373ffffffffffffffffffffffffffffffffffffffff16021790555050565b60003390509056fe4f776e61626c653a206e6577206f776e657220697320746865207a65726f2061646472657373a264697066735822122087d8804b298443c274d7ed1bc4b7ef9cfd8021d2d310e0e7ad61523fce1d5ef464736f6c63430006050033",
  "immutableReferences": {},
  "source": "// SPDX-License-Identifier: MIT\n\npragma solidity 0.6.5;\n\nimport \"@openzeppelin/contracts/access/Ownable.sol\";\n\n// Define a contract 'Lemonade Stand'\ncontract TokenVines is Ownable {\n    uint256 public vineCount; // total vines listed\n\n    uint256[] public vineIds;\n\n    // Event: 'State' with value 'ForSale'\n    enum Sale {\n        NotForSale,\n        ForSale\n    }\n\n    enum State {\n        Unharvested,\n        Harvested\n    }\n\n    struct Vine {\n        uint256 vineId;\n        uint256 price;\n        Sale sale;\n        State state;\n        address payable seller;\n        address payable buyer;\n    }\n\n    // Define a public mapping 'items' that maps the SKU (a number) to an Item.\n    mapping(uint256 => Vine) vines;\n\n    constructor() public {}\n\n    // TODO: create putVineForSale() function\n    // TODO: test all functionality in truffle develop\n    // TODO: research how to handle events in front end\n\n    function getVineIds() public view returns (uint256[] memory) {\n        return vineIds;\n    }\n\n    function putVineForSale(uint256 vineId) public {\n        // TODO: require msg.sender == ownerofthevine\n        // fetch vine\n        // change state\n\n        Vine storage v = vines[vineId];\n        v.sale = Sale.ForSale;\n        v.seller = msg.sender;\n    }\n\n    function createVineyard(uint256 _count, uint256 _price)\n        public\n        returns (uint256)\n    {\n        for (uint256 i = 1; i < _count + 1; i++) {\n            vineIds.push(i);\n            vines[i] = Vine({\n                vineId: i,\n                price: _price,\n                sale: Sale.ForSale,\n                state: State.Harvested,\n                seller: payable(owner()),\n                buyer: payable(address(0))\n            });\n\n            vineCount = vineCount + 1;\n        }\n\n        return vineCount;\n    }\n\n    function buyVine(uint256 _vineId) public payable {\n        address buyer = msg.sender;\n        uint256 price = vines[_vineId].price;\n\n        // TODO: create forSale modifier\n\n        // Update Buyer\n        vines[_vineId].buyer = payable(buyer);\n\n        // Update State\n        vines[_vineId].state = State.Unharvested;\n\n        // Update Sale\n        vines[_vineId].sale = Sale.NotForSale;\n\n        // Transfer money to seller\n        // this function doesn't work\n        vines[_vineId].seller.transfer(price);\n    }\n\n    function fetchVine(uint256 _vineId)\n        public\n        view\n        returns (\n            uint256 vineId,\n            uint256 price,\n            string memory saleIs,\n            string memory stateIs,\n            address seller,\n            address buyer\n        )\n    {\n        uint256 state;\n        uint256 sale;\n        vineId = vines[_vineId].vineId;\n        price = vines[_vineId].price;\n        sale = uint256(vines[_vineId].sale);\n\n        if (sale == 0) {\n            saleIs = \"NotForSale\";\n        }\n\n        if (sale == 1) {\n            saleIs = \"ForSale\";\n        }\n\n        state = uint256(vines[_vineId].state);\n\n        if (state == 0) {\n            stateIs = \"Unharvested\";\n        }\n\n        if (state == 1) {\n            stateIs = \"Harvested\";\n        }\n\n        seller = vines[_vineId].seller;\n        buyer = vines[_vineId].buyer;\n    }\n}\n",
  "sourcePath": "/Users/josejlovaglio/Development/Consensys/Consensys-Final-Project/contracts/TokenVines.sol",
  "compiler": {
    "name": "solc",
    "version": "0.6.5+commit.f956cc89.Emscripten.clang"
  },
  "schemaVersion": "3.4.3",
  "updatedAt": "2021-12-03T16:26:02.782Z",
  "networkType": "ethereum",
  "devdoc": {
    "methods": {
      "owner()": {
        "details": "Returns the address of the current owner."
      },
      "renounceOwnership()": {
        "details": "Leaves the contract without owner. It will not be possible to call `onlyOwner` functions anymore. Can only be called by the current owner.     * NOTE: Renouncing ownership will leave the contract without an owner, thereby removing any functionality that is only available to the owner."
      },
      "transferOwnership(address)": {
        "details": "Transfers ownership of the contract to a new account (`newOwner`). Can only be called by the current owner."
      }
    }
  },
  "userdoc": {
    "methods": {}
  }
}